:100000005EC0000058C2000083C200007FC0000034
:100010007DC000007BC0000079C0000056C6000013
:1000200075C0000073C0000071C000006FC0000008
:100030006DC00000A6C6000069C0000067C00000D7
:1000400094C2000063C000007FC40000AFC4000081
:100050005DC000005BC0000059C0000057C0000038
:1000600055C0000053C0000000000008000201005D
:100070000003040700000000000000000102040863
:100080001020408001020408102001020408102002
:10009000040404040404040402020202020203032E
:1000A0000303030300000000250028002B000000CC
:1000B0000000240027002A000200FB04750511241B
:1000C0001FBECFEFD8E0DEBFCDBF11E0A0E0B1E0B2
:1000D000E0E3F1E102C005900D92A033B107D9F73A
:1000E00022E0A0E3B1E001C01D92A230B207E1F727
:1000F00010E0CEEBD0E004C02297FE010E949208EF
:10010000CA3BD107C9F7A1D60C94960879CFCF92F4
:10011000DF92EF92FF928091F4018F3318F48F5F9A
:100120008093F4018091F5018F3318F48F5F8093F1
:10013000F5018091F001811112C081E08093F001FE
:100140008093F1011092F4018093F2011092EC017E
:100150001092ED011092EE011092EF0113C19091F7
:10016000F1018091F401913009F0B1C08233A8F01F
:1001700020E030E040E450E46091EC017091ED014A
:100180008091EE019091EF0100D7811106C010928D
:10019000F20182E08093F101ADC09091F2019130C3
:1001A00029F08091F501923069F14DC082E0809391
:1001B000F2011092F50180E090E0A0E8BFE38093A7
:1001C000FA019093FB01A093FC01B093FD01809391
:1001D000FE019093FF01A0930002B093010280936F
:1001E000F6019093F701A093F801B093F9019C01F7
:1001F000AD016091EC017091ED018091EE01909163
:10020000EF015BC0823308F4BDC083E08093F2014C
:100210001092F5011092FA011092FB011092FC016C
:100220001092FD011092FE011092FF011092000247
:10023000109201021092F6011092F7011092F8014B
:100240001092F9019FC0823308F49CC0C090EC0169
:10025000D090ED01E090EE01F090EF0120E030E071
:1002600040E450E4C701B60190D6882309F48AC05F
:1002700082E08093F2011092F50180E090E0A0E826
:10028000BFE38093FA019093FB01A093FC01B0932C
:10029000FD018093FE019093FF01A0930002B093B3
:1002A00001028093F6019093F701A093F801B093B7
:1002B000F9019C01AD01C701B60103D66093EC01C1
:1002C0007093ED018093EE019093EF015BC09091EC
:1002D000F301913019F09230F1F039C0823308F413
:1002E00051C01092F6011092F7011092F80110928D
:1002F000F90182E08093F3011092F40180E090E034
:10030000A0E8BFE38093FA019093FB01A093FC0166
:10031000B093FD0137C08233A8F11092FA01109218
:10032000FB011092FC011092FD0183E08093F30128
:100330001092F40180E090E0A0E8BFE38093FE011A
:100340009093FF01A0930002B09301021BC082337F
:10035000C8F01092FE011092FF011092000210925C
:10036000010281E08093F3011092F40180E090E0BB
:10037000A0E8BFE38093F6019093F701A093F80102
:10038000B093F901C090F601D090F701E090F80128
:10039000F090F90120E030E040E853E4C701B601F5
:1003A000F4D587FF0CC020E030E0A901C701B601F9
:1003B00091D687FD06C0C701B601EBD503C06FEF2C
:1003C00001C060E080910A01B7D1C090FE01D090D9
:1003D000FF01E0900002F090010220E030E040E8F0
:1003E00053E4C701B601D1D587FF0CC020E030E04F
:1003F000A901C701B6016ED687FD06C0C701B601C7
:10040000C8D503C06FEF01C060E080910E0194D1A8
:10041000C090FA01D090FB01E090FC01F090FD014A
:1004200020E030E040E853E4C701B601AED587FFD5
:100430000CC020E030E0A901C701B6014BD687FD12
:1004400006C0C701B601A5D503C06FEF01C060E0CB
:1004500080911201FF90EF90DF90CF906DC11092CC
:10046000EB011092EA018CE0E6EFF1E0DF011D9272
:100470008A95E9F78AE0ECEEF1E0DF011D928A95BA
:10048000E9F761E080910A011ED161E080910E01DF
:100490001AD161E08091120116D11092F2011092EE
:1004A000F5011092F3011092F4011092F0011092F4
:1004B000F101089508951F920F920FB60F92112423
:1004C0002F933F934F935F936F937F938F939F935C
:1004D000AF93BF93EF93FF938091300190913101DF
:1004E000892B29F0E0913001F09131010995FF91BC
:1004F000EF91BF91AF919F918F917F916F915F919C
:100500004F913F912F910F900FBE0F901F90189514
:100510001F920F920FB60F9211242F933F934F9378
:100520005F936F937F938F939F93AF93BF93EF935B
:10053000FF938091320190913301892B29F0E09152
:100540003201F09133010995FF91EF91BF91AF9185
:100550009F918F917F916F915F914F913F912F91DB
:100560000F900FBE0F901F9018951F920F920FB60D
:100570000F9211242F933F938F939F93AF93BF9329
:100580008091350190913601A0913701B0913801E9
:100590003091340123E0230F2D3720F40196A11D63
:1005A000B11D05C026E8230F0296A11DB11D2093A1
:1005B00034018093350190933601A0933701B093B5
:1005C00038018091390190913A01A0913B01B0919D
:1005D0003C010196A11DB11D8093390190933A0110
:1005E000A0933B01B0933C01BF91AF919F918F913C
:1005F0003F912F910F900FBE0F901F9018957894F8
:1006000084B5826084BD84B5816084BD85B5826017
:1006100085BD85B5816085BDEEE6F0E080818160B5
:100620008083E1E8F0E010828081826080838081B5
:1006300081608083E0E8F0E0808181608083E1EB8D
:10064000F0E0808184608083E0EBF0E08081816075
:100650008083EAE7F0E0808184608083808182602B
:100660008083808181608083808180688083109214
:10067000C1000895833081F028F4813099F08230F0
:10068000A1F008958730A9F08830B9F08430D1F412
:10069000809180008F7D03C0809180008F77809350
:1006A0008000089584B58F7702C084B58F7D84BDA6
:1006B00008958091B0008F7703C08091B0008F7D46
:1006C0008093B0000895CF93DF9390E0FC01E4584D
:1006D000FF4F2491FC01E057FF4F8491882349F19B
:1006E00090E0880F991FFC01E255FF4FA591B4914E
:1006F0008C559F4FFC01C591D4919FB7611108C0E3
:10070000F8948C91209582238C93888182230AC04F
:10071000623051F4F8948C91322F309583238C936E
:100720008881822B888304C0F8948C91822B8C93CF
:100730009FBFDF91CF9108950F931F93CF93DF93C6
:100740001F92CDB7DEB7282F30E0F901E859FF4FEF
:100750008491F901E458FF4F1491F901E057FF4FDC
:1007600004910023C1F0882319F0698383DF698134
:10077000E02FF0E0EE0FFF1FEC55FF4FA591B49175
:100780009FB7F8948C91611103C01095812301C02B
:10079000812B8C939FBF0F90DF91CF911F910F9171
:1007A0000895FC01818D228D90E0805C9F4F821B1B
:1007B00091098F7399270895FC01918D828D981767
:1007C00031F0828DE80FF11D858D90E008958FEF57
:1007D0009FEF0895FC01918D828D981761F0828DB5
:1007E000DF01A80FB11D5D968C91928D9F5F9F7365
:1007F000928F90E008958FEF9FEF0895FC01848D14
:10080000DF01A80FB11DA35ABF4F2C91848D90E03A
:1008100001968F739927848FA689B7892C93A08915
:10082000B1898C9180648C93938D848D981306C0CC
:100830000288F389E02D80818F7D80830895CF9396
:10084000DF93EC01888D8823C1F0EA89FB898081E0
:1008500085FD05C0A889B9898C9186FD0EC00FB6AB
:1008600007FCF5CF808185FFF2CFA889B9898C91EB
:1008700085FFEDCFCE01C2DFE8CFDF91CF910895A4
:10088000CF92DF92FF920F931F93CF93DF931F922C
:10089000CDB7DEB76C01DC015B969C915B975C96F3
:1008A0008C915C97981307C05096ED91FC915197ED
:1008B000808185FD31C0F601038D10E00F5F1F4F71
:1008C0000F731127F02EF601848DF81210C00FB6A9
:1008D00007FCF9CFD6015096ED91FC91519780819C
:1008E00085FFF1CFC601698389DF6981ECCF838DF4
:1008F000E80FF11DE35AFF4F6083D6015B960C931E
:100900005B975296ED91FC91539780818062808332
:1009100081E058968C930DC0D6015696ED91FC91CE
:10092000579760835096ED91FC9151978081806438
:10093000808381E090E00F90DF91CF911F910F9124
:10094000FF90DF90CF9008951F920F920FB60F92F5
:1009500011242F938F939F93EF93FF93E0914D0179
:10096000F0914E018081E0915301F091540182FD9C
:1009700012C09081809156018F5F8F732091570133
:10098000821751F0E0915601F0E0E35CFE4F958F45
:100990008093560101C08081FF91EF919F918F91CB
:1009A0002F910F900FBE0F901F9018951F920F92CE
:1009B0000FB60F9211242F933F934F935F936F9332
:1009C0007F938F939F93AF93BF93EF93FF938DE3A9
:1009D00091E014DFFF91EF91BF91AF919F918F91C3
:1009E0007F916F915F914F913F912F910F900FBE2B
:1009F0000F901F9018951092400110923F0188EEC1
:100A000093E0A0E0B0E08093410190934201A09375
:100A10004301B09344018DE191E090933E018093B6
:100A20003D0185EC90E090934A018093490184EC6C
:100A300090E090934C0180934B0180EC90E0909378
:100A40004E0180934D0181EC90E090935001809392
:100A50004F0182EC90E0909352018093510186EC1B
:100A600090E090935401809353011092560110929C
:100A7000570110925801109259010895AF92BF92F8
:100A8000CF92DF92EF92FF920F931F93CF93DF935A
:100A90006C017B01C0E0D0E000E010E0F601EC0F5B
:100AA000FD1F4AE050E06281C701D6D05C016EE2D2
:100AB000C70168D08A0D9B1D080F191F2196C330EE
:100AC000D10561F74AE050E0F6016581C701C4D065
:100AD000800F911FDF91CF911F910F91FF90EF90A9
:100AE000DF90CF90BF90AF9008958DE291E090930A
:100AF000DB018093DA011092DC011092DD0110928B
:100B0000DE011092DF010895CF92DF92EF92FF9203
:100B10000F931F93CF93DF936C017A01EB01E60EE5
:100B2000F71E00E010E0CE15DF0561F06991D601F7
:100B3000ED91FC910190F081E02DC6010995080F1F
:100B4000191FF1CFC801DF91CF911F910F91FF9035
:100B5000EF90DF90CF9008956115710581F0DB0172
:100B60000D900020E9F7AD0141505109461B570B8C
:100B7000DC01ED91FC910280F381E02D099480E08D
:100B800090E00895DC01ED91FC910190F081E02D61
:100B900009948F929F92AF92BF92CF92DF92EF9281
:100BA000FF920F931F93CF93DF93CDB7DEB7A1973B
:100BB0000FB6F894DEBF0FBECDBF7C01C42EE52F6B
:100BC000CB01D22E19A221E02D1510F02AE0D22E51
:100BD0008E010F5D1F4F8D2C912CA12CB12C6C2DF3
:100BE0007E2FA50194017AD28C2DD29E80191124DA
:100BF000015011098A3014F4805D01C0895CF8014C
:100C00008083211531054105510521F0C22EE32FC6
:100C1000CA01E5CFB801C7019FDFA1960FB6F894CE
:100C2000DEBF0FBECDBFDF91CF911F910F91FF901F
:100C3000EF90DF90CF90BF90AF909F908F900895EE
:100C40002115310541F4DC01ED91FC910190F08119
:100C5000E02D642F09949DCF9A01462F50E060E06B
:100C600070E0EECF813039F018F0823051F0089505
:100C700010926E00089580916F008D7F80936F00B9
:100C80000895809170008D7F8093700081E0809343
:100C9000B0008091B100887F84608093B100109291
:100CA000B3000895CF93C82F809116018C1307C00D
:100CB000E8EBF0E084919FEF9093160101C08FEF75
:100CC000D1DF60E08C2FCF9137CD1F920F920FB6FE
:100CD0000F9211242F933F934F935F936F937F93C2
:100CE0008F939F93AF93BF93EF93FF938091E30113
:100CF0009091E401A091E501B091E601892B8A2B46
:100D00008B2B51F19091E001E091E101F091E20132
:100D10008081892780838091E3019091E401A091F3
:100D2000E501B091E601181619061A061B06BCF477
:100D30008091E3019091E401A091E501B091E60179
:100D40000197A109B1098093E3019093E401A09375
:100D5000E501B093E60103C080911601A3DFFF9186
:100D6000EF91BF91AF919F918F917F916F915F9123
:100D70004F913F912F910F900FBE0F901F9018959C
:100D800008951F920F920FB60F9211242F933F9345
:100D90004F935F936F937F938F939F93AF93BF9383
:100DA000EF93FF9386E997EE9093850080938400FC
:100DB00032D0FF91EF91BF91AF919F918F917F9131
:100DC0006F915F914F913F912F910F900FBE0F90B8
:100DD0001F90189586E997EE909385008093840084
:100DE000AFE6B0E08C918E7F8C93E0E8F0E08081FC
:100DF0008C7F8083E1E8F0E08081877E8083808142
:100E00008460808380818C7F80838C9181608C93CF
:100E1000089581E008952091E70181E0820F809399
:100E2000E701222349F081E090E09093E90180936B
:100E3000E8012093E7010895789469D9F8948091A6
:100E4000E70181508093E70108950F931F93CF939B
:100E5000DF931F92CDB7DEB781E08983D0DB90DFCF
:100E60000091170110911801F80111821082F7DA30
:100E7000B1DF21E0F80180819181892B09F020E028
:100E80002983789478948981882381F021E0F8017E
:100E900080819181892B09F020E029838981882331
:100EA00011F0B7DF01C080E08983EDCF03DBF89458
:100EB00080E090E00F90DF91CF911F910F91089506
:100EC0005058BB27AA270ED0CBC0BCD030F0C1D021
:100ED00020F031F49F3F11F41EF4B1C00EF4E09500
:100EE000E7FBA7C0E92FCDD080F3BA1762077307DD
:100EF0008407950718F071F49EF5E5C00EF4E095AF
:100F00000B2EBA2FA02D0B01B90190010C01CA01C3
:100F1000A0011124FF27591B99F0593F50F4503E6E
:100F200068F11A16F040A22F232F342F4427585F60
:100F3000F3CF469537952795A795F0405395C9F778
:100F40007EF41F16BA0B620B730B840BBAF0915030
:100F5000A1F0FF0FBB1F661F771F881FC2F70EC0CF
:100F6000BA0F621F731F841F48F4879577956795A2
:100F7000B795F7959E3F08F0B3CF9395880F08F08B
:100F80009927EE0F9795879508952FD008F481E063
:100F900008957FD088F09F5790F0B92F9927B751C7
:100FA000A0F0D1F0660F771F881F991F1AF0BA952D
:100FB000C9F712C0B13081F086D0B1E0089583C086
:100FC000672F782F8827B85F39F0B93FCCF3869523
:100FD00077956795B395D9F73EF490958095709580
:100FE00061957F4F8F4F9F4F0895990F0008550FC0
:100FF000AA0BE0E8FEEF16161706E807F907C0F09F
:1010000012161306E407F50798F0621B730B840BA6
:10101000950B39F40A2661F0232B242B252B21F480
:1010200008950A2609F4A140A6958FEF811D811D20
:10103000089597F99F6780E870E060E008959FEF5A
:1010400080EC089500240A9416161706180609065F
:10105000089500240A94121613061406050608952E
:10106000092E0394000C11F4882352F0BB0F40F4B6
:10107000BF2B11F460FF04C06F5F7F4F8F4F9F4FF6
:10108000089557FD9058440F551F59F05F3F71F078
:101090004795880F97FB991F61F09F3F79F08795DF
:1010A0000895121613061406551FF2CF4695F1DF68
:1010B00008C0161617061806991FF1CF86957105F8
:1010C000610508940895E894BB2766277727CB012C
:1010D00097F908958ADF08F48FEF0895A1E21A2E98
:1010E000AA1BBB1BFD010DC0AA1FBB1FEE1FFF1FCC
:1010F000A217B307E407F50720F0A21BB30BE40B1C
:10110000F50B661F771F881F991F1A9469F7609562
:101110007095809590959B01AC01BD01CF0108951C
:10112000EE0FFF1F0590F491E02D0994F894FFCF86
:10113000000002028000010000000900000007001A
:10114000000008000000FFEA0100000000400484E5
:1011500005D103EA03DC031F04000000003E050084
:00000001FF
